{
  "_format": "hh3-artifact-1",
  "contractName": "SupplyChain",
  "sourceName": "contracts/SupplyChain.sol",
  "abi": [
    {
      "anonymous": false,
      "inputs": [
        {
          "indexed": true,
          "internalType": "uint256",
          "name": "productId",
          "type": "uint256"
        },
        {
          "indexed": false,
          "internalType": "string",
          "name": "name",
          "type": "string"
        },
        {
          "indexed": true,
          "internalType": "address",
          "name": "creator",
          "type": "address"
        }
      ],
      "name": "ProductCreated",
      "type": "event"
    },
    {
      "anonymous": false,
      "inputs": [
        {
          "indexed": true,
          "internalType": "uint256",
          "name": "productId",
          "type": "uint256"
        },
        {
          "indexed": true,
          "internalType": "address",
          "name": "from",
          "type": "address"
        },
        {
          "indexed": true,
          "internalType": "address",
          "name": "to",
          "type": "address"
        }
      ],
      "name": "ProductTransferred",
      "type": "event"
    },
    {
      "inputs": [
        {
          "internalType": "string",
          "name": "_name",
          "type": "string"
        },
        {
          "internalType": "string",
          "name": "_serialNumber",
          "type": "string"
        },
        {
          "internalType": "string",
          "name": "_batchNumber",
          "type": "string"
        },
        {
          "internalType": "string",
          "name": "_details",
          "type": "string"
        }
      ],
      "name": "createProduct",
      "outputs": [
        {
          "internalType": "uint256",
          "name": "",
          "type": "uint256"
        }
      ],
      "stateMutability": "nonpayable",
      "type": "function"
    },
    {
      "inputs": [
        {
          "internalType": "uint256",
          "name": "_productId",
          "type": "uint256"
        }
      ],
      "name": "getProductHistory",
      "outputs": [
        {
          "components": [
            {
              "internalType": "uint256",
              "name": "productId",
              "type": "uint256"
            },
            {
              "internalType": "address",
              "name": "from",
              "type": "address"
            },
            {
              "internalType": "address",
              "name": "to",
              "type": "address"
            },
            {
              "internalType": "uint256",
              "name": "timestamp",
              "type": "uint256"
            }
          ],
          "internalType": "struct SupplyChain.TransferEvent[]",
          "name": "",
          "type": "tuple[]"
        }
      ],
      "stateMutability": "view",
      "type": "function"
    },
    {
      "inputs": [],
      "name": "productCount",
      "outputs": [
        {
          "internalType": "uint256",
          "name": "",
          "type": "uint256"
        }
      ],
      "stateMutability": "view",
      "type": "function"
    },
    {
      "inputs": [
        {
          "internalType": "uint256",
          "name": "",
          "type": "uint256"
        },
        {
          "internalType": "uint256",
          "name": "",
          "type": "uint256"
        }
      ],
      "name": "productHistory",
      "outputs": [
        {
          "internalType": "uint256",
          "name": "productId",
          "type": "uint256"
        },
        {
          "internalType": "address",
          "name": "from",
          "type": "address"
        },
        {
          "internalType": "address",
          "name": "to",
          "type": "address"
        },
        {
          "internalType": "uint256",
          "name": "timestamp",
          "type": "uint256"
        }
      ],
      "stateMutability": "view",
      "type": "function"
    },
    {
      "inputs": [
        {
          "internalType": "uint256",
          "name": "",
          "type": "uint256"
        }
      ],
      "name": "products",
      "outputs": [
        {
          "internalType": "uint256",
          "name": "id",
          "type": "uint256"
        },
        {
          "internalType": "string",
          "name": "name",
          "type": "string"
        },
        {
          "internalType": "string",
          "name": "serialNumber",
          "type": "string"
        },
        {
          "internalType": "string",
          "name": "batchNumber",
          "type": "string"
        },
        {
          "internalType": "string",
          "name": "details",
          "type": "string"
        },
        {
          "internalType": "address",
          "name": "currentOwner",
          "type": "address"
        },
        {
          "internalType": "address",
          "name": "creator",
          "type": "address"
        },
        {
          "internalType": "uint256",
          "name": "creationTime",
          "type": "uint256"
        }
      ],
      "stateMutability": "view",
      "type": "function"
    },
    {
      "inputs": [
        {
          "internalType": "uint256",
          "name": "_productId",
          "type": "uint256"
        },
        {
          "internalType": "address",
          "name": "_newOwner",
          "type": "address"
        }
      ],
      "name": "transferProduct",
      "outputs": [],
      "stateMutability": "nonpayable",
      "type": "function"
    }
  ],
  "bytecode": "0x608060405234801561000f575f80fd5b506117448061001d5f395ff3fe608060405234801561000f575f80fd5b5060043610610060575f3560e01c80633a7d23761461006457806357a096a1146100975780637acc0b20146100c7578063e0f6ef87146100fe578063e43059e51461011c578063eb51e3cd14610138575b5f80fd5b61007e60048036038101906100799190610ca3565b610168565b60405161008e9493929190610d2f565b60405180910390f35b6100b160048036038101906100ac9190610d72565b6101ec565b6040516100be9190610eb6565b60405180910390f35b6100e160048036038101906100dc9190610d72565b610365565b6040516100f5989796959493929190610f60565b60405180910390f35b6101066105ff565b6040516101139190610ff8565b60405180910390f35b6101366004803603810190610131919061103b565b610604565b005b610152600480360381019061014d91906111a5565b610954565b60405161015f9190610ff8565b60405180910390f35b6002602052815f5260405f208181548110610181575f80fd5b905f5260205f2090600402015f9150915050805f015490806001015f9054906101000a900473ffffffffffffffffffffffffffffffffffffffff1690806002015f9054906101000a900473ffffffffffffffffffffffffffffffffffffffff16908060030154905084565b60605f821180156101fe57505f548211155b61023d576040517f08c379a0000000000000000000000000000000000000000000000000000000008152600401610234906112c3565b60405180910390fd5b60025f8381526020019081526020015f20805480602002602001604051908101604052809291908181526020015f905b8282101561035a578382905f5260205f2090600402016040518060800160405290815f8201548152602001600182015f9054906101000a900473ffffffffffffffffffffffffffffffffffffffff1673ffffffffffffffffffffffffffffffffffffffff1673ffffffffffffffffffffffffffffffffffffffff168152602001600282015f9054906101000a900473ffffffffffffffffffffffffffffffffffffffff1673ffffffffffffffffffffffffffffffffffffffff1673ffffffffffffffffffffffffffffffffffffffff1681526020016003820154815250508152602001906001019061026d565b505050509050919050565b6001602052805f5260405f205f91509050805f01549080600101805461038a9061130e565b80601f01602080910402602001604051908101604052809291908181526020018280546103b69061130e565b80156104015780601f106103d857610100808354040283529160200191610401565b820191905f5260205f20905b8154815290600101906020018083116103e457829003601f168201915b5050505050908060020180546104169061130e565b80601f01602080910402602001604051908101604052809291908181526020018280546104429061130e565b801561048d5780601f106104645761010080835404028352916020019161048d565b820191905f5260205f20905b81548152906001019060200180831161047057829003601f168201915b5050505050908060030180546104a29061130e565b80601f01602080910402602001604051908101604052809291908181526020018280546104ce9061130e565b80156105195780601f106104f057610100808354040283529160200191610519565b820191905f5260205f20905b8154815290600101906020018083116104fc57829003601f168201915b50505050509080600401805461052e9061130e565b80601f016020809104026020016040519081016040528092919081815260200182805461055a9061130e565b80156105a55780601f1061057c576101008083540402835291602001916105a5565b820191905f5260205f20905b81548152906001019060200180831161058857829003601f168201915b505050505090806005015f9054906101000a900473ffffffffffffffffffffffffffffffffffffffff1690806006015f9054906101000a900473ffffffffffffffffffffffffffffffffffffffff16908060070154905088565b5f5481565b5f8211801561061457505f548211155b610653576040517f08c379a000000000000000000000000000000000000000000000000000000000815260040161064a906112c3565b60405180910390fd5b5f60015f8481526020019081526020015f2090503373ffffffffffffffffffffffffffffffffffffffff16816005015f9054906101000a900473ffffffffffffffffffffffffffffffffffffffff1673ffffffffffffffffffffffffffffffffffffffff16146106f8576040517f08c379a00000000000000000000000000000000000000000000000000000000081526004016106ef90611388565b60405180910390fd5b5f73ffffffffffffffffffffffffffffffffffffffff168273ffffffffffffffffffffffffffffffffffffffff1603610766576040517f08c379a000000000000000000000000000000000000000000000000000000000815260040161075d906113f0565b60405180910390fd5b5f816005015f9054906101000a900473ffffffffffffffffffffffffffffffffffffffff16905082826005015f6101000a81548173ffffffffffffffffffffffffffffffffffffffff021916908373ffffffffffffffffffffffffffffffffffffffff16021790555060025f8581526020019081526020015f2060405180608001604052808681526020018373ffffffffffffffffffffffffffffffffffffffff1681526020018573ffffffffffffffffffffffffffffffffffffffff16815260200142815250908060018154018082558091505060019003905f5260205f2090600402015f909190919091505f820151815f01556020820151816001015f6101000a81548173ffffffffffffffffffffffffffffffffffffffff021916908373ffffffffffffffffffffffffffffffffffffffff1602179055506040820151816002015f6101000a81548173ffffffffffffffffffffffffffffffffffffffff021916908373ffffffffffffffffffffffffffffffffffffffff1602179055506060820151816003015550508273ffffffffffffffffffffffffffffffffffffffff168173ffffffffffffffffffffffffffffffffffffffff16857fcef86d37ba3dc1d682967cde44d8050488734bf53166725b220b4d2e515e9e9360405160405180910390a450505050565b5f805f8154809291906109669061143b565b91905055505f805490506040518061010001604052808281526020018781526020018681526020018581526020018481526020013373ffffffffffffffffffffffffffffffffffffffff1681526020013373ffffffffffffffffffffffffffffffffffffffff1681526020014281525060015f8381526020019081526020015f205f820151815f01556020820151816001019081610a04919061161f565b506040820151816002019081610a1a919061161f565b506060820151816003019081610a30919061161f565b506080820151816004019081610a46919061161f565b5060a0820151816005015f6101000a81548173ffffffffffffffffffffffffffffffffffffffff021916908373ffffffffffffffffffffffffffffffffffffffff16021790555060c0820151816006015f6101000a81548173ffffffffffffffffffffffffffffffffffffffff021916908373ffffffffffffffffffffffffffffffffffffffff16021790555060e0820151816007015590505060025f8281526020019081526020015f2060405180608001604052808381526020015f73ffffffffffffffffffffffffffffffffffffffff1681526020013373ffffffffffffffffffffffffffffffffffffffff16815260200142815250908060018154018082558091505060019003905f5260205f2090600402015f909190919091505f820151815f01556020820151816001015f6101000a81548173ffffffffffffffffffffffffffffffffffffffff021916908373ffffffffffffffffffffffffffffffffffffffff1602179055506040820151816002015f6101000a81548173ffffffffffffffffffffffffffffffffffffffff021916908373ffffffffffffffffffffffffffffffffffffffff1602179055506060820151816003015550503373ffffffffffffffffffffffffffffffffffffffff16817faf6ffb6277511513e7d579327cc1fc57f0266df2fb11a60b13487b8c9cd2c38888604051610c4b91906116ee565b60405180910390a380915050949350505050565b5f604051905090565b5f80fd5b5f80fd5b5f819050919050565b610c8281610c70565b8114610c8c575f80fd5b50565b5f81359050610c9d81610c79565b92915050565b5f8060408385031215610cb957610cb8610c68565b5b5f610cc685828601610c8f565b9250506020610cd785828601610c8f565b9150509250929050565b610cea81610c70565b82525050565b5f73ffffffffffffffffffffffffffffffffffffffff82169050919050565b5f610d1982610cf0565b9050919050565b610d2981610d0f565b82525050565b5f608082019050610d425f830187610ce1565b610d4f6020830186610d20565b610d5c6040830185610d20565b610d696060830184610ce1565b95945050505050565b5f60208284031215610d8757610d86610c68565b5b5f610d9484828501610c8f565b91505092915050565b5f81519050919050565b5f82825260208201905092915050565b5f819050602082019050919050565b610dcf81610c70565b82525050565b610dde81610d0f565b82525050565b608082015f820151610df85f850182610dc6565b506020820151610e0b6020850182610dd5565b506040820151610e1e6040850182610dd5565b506060820151610e316060850182610dc6565b50505050565b5f610e428383610de4565b60808301905092915050565b5f602082019050919050565b5f610e6482610d9d565b610e6e8185610da7565b9350610e7983610db7565b805f5b83811015610ea9578151610e908882610e37565b9750610e9b83610e4e565b925050600181019050610e7c565b5085935050505092915050565b5f6020820190508181035f830152610ece8184610e5a565b905092915050565b5f81519050919050565b5f82825260208201905092915050565b5f5b83811015610f0d578082015181840152602081019050610ef2565b5f8484015250505050565b5f601f19601f8301169050919050565b5f610f3282610ed6565b610f3c8185610ee0565b9350610f4c818560208601610ef0565b610f5581610f18565b840191505092915050565b5f61010082019050610f745f83018b610ce1565b8181036020830152610f86818a610f28565b90508181036040830152610f9a8189610f28565b90508181036060830152610fae8188610f28565b90508181036080830152610fc28187610f28565b9050610fd160a0830186610d20565b610fde60c0830185610d20565b610feb60e0830184610ce1565b9998505050505050505050565b5f60208201905061100b5f830184610ce1565b92915050565b61101a81610d0f565b8114611024575f80fd5b50565b5f8135905061103581611011565b92915050565b5f806040838503121561105157611050610c68565b5b5f61105e85828601610c8f565b925050602061106f85828601611027565b9150509250929050565b5f80fd5b5f80fd5b7f4e487b71000000000000000000000000000000000000000000000000000000005f52604160045260245ffd5b6110b782610f18565b810181811067ffffffffffffffff821117156110d6576110d5611081565b5b80604052505050565b5f6110e8610c5f565b90506110f482826110ae565b919050565b5f67ffffffffffffffff82111561111357611112611081565b5b61111c82610f18565b9050602081019050919050565b828183375f83830152505050565b5f611149611144846110f9565b6110df565b9050828152602081018484840111156111655761116461107d565b5b611170848285611129565b509392505050565b5f82601f83011261118c5761118b611079565b5b813561119c848260208601611137565b91505092915050565b5f805f80608085870312156111bd576111bc610c68565b5b5f85013567ffffffffffffffff8111156111da576111d9610c6c565b5b6111e687828801611178565b945050602085013567ffffffffffffffff81111561120757611206610c6c565b5b61121387828801611178565b935050604085013567ffffffffffffffff81111561123457611233610c6c565b5b61124087828801611178565b925050606085013567ffffffffffffffff81111561126157611260610c6c565b5b61126d87828801611178565b91505092959194509250565b7f50726f6475637420646f6573206e6f74206578697374000000000000000000005f82015250565b5f6112ad601683610ee0565b91506112b882611279565b602082019050919050565b5f6020820190508181035f8301526112da816112a1565b9050919050565b7f4e487b71000000000000000000000000000000000000000000000000000000005f52602260045260245ffd5b5f600282049050600182168061132557607f821691505b602082108103611338576113376112e1565b5b50919050565b7f4f6e6c792063757272656e74206f776e65722063616e207472616e73666572005f82015250565b5f611372601f83610ee0565b915061137d8261133e565b602082019050919050565b5f6020820190508181035f83015261139f81611366565b9050919050565b7f496e76616c6964206e6577206f776e65722061646472657373000000000000005f82015250565b5f6113da601983610ee0565b91506113e5826113a6565b602082019050919050565b5f6020820190508181035f830152611407816113ce565b9050919050565b7f4e487b71000000000000000000000000000000000000000000000000000000005f52601160045260245ffd5b5f61144582610c70565b91507fffffffffffffffffffffffffffffffffffffffffffffffffffffffffffffffff82036114775761147661140e565b5b600182019050919050565b5f819050815f5260205f209050919050565b5f6020601f8301049050919050565b5f82821b905092915050565b5f600883026114de7fffffffffffffffffffffffffffffffffffffffffffffffffffffffffffffffff826114a3565b6114e886836114a3565b95508019841693508086168417925050509392505050565b5f819050919050565b5f61152361151e61151984610c70565b611500565b610c70565b9050919050565b5f819050919050565b61153c83611509565b6115506115488261152a565b8484546114af565b825550505050565b5f90565b611564611558565b61156f818484611533565b505050565b5b81811015611592576115875f8261155c565b600181019050611575565b5050565b601f8211156115d7576115a881611482565b6115b184611494565b810160208510156115c0578190505b6115d46115cc85611494565b830182611574565b50505b505050565b5f82821c905092915050565b5f6115f75f19846008026115dc565b1980831691505092915050565b5f61160f83836115e8565b9150826002028217905092915050565b61162882610ed6565b67ffffffffffffffff81111561164157611640611081565b5b61164b825461130e565b611656828285611596565b5f60209050601f831160018114611687575f8415611675578287015190505b61167f8582611604565b8655506116e6565b601f19841661169586611482565b5f5b828110156116bc57848901518255600182019150602085019450602081019050611697565b868310156116d957848901516116d5601f8916826115e8565b8355505b6001600288020188555050505b505050505050565b5f6020820190508181035f8301526117068184610f28565b90509291505056fea2646970667358221220209b3791e4efd0386cf7ff5bc85c057bcc4abb08c9ebd745466b4ae8b4b8680464736f6c63430008140033",
  "linkReferences": {},
  "deployedLinkReferences": {},
  "immutableReferences": {},
  "inputSourceName": "project/contracts/SupplyChain.sol",
  "buildInfoId": "solc-0_8_20-c61c7e0e34eadafa66089b6d40243a6edd926d8d"
}